:020000022000DC
:107000000000042065FE0300A5FE0300A7FE0300A8
:10701000A9FE0300ABFE0300ADFE0300000000006C
:10702000000000000000000000000000A123040098
:10703000B1FE030000000000C1230400B5FE030000
:1070400015250400B7FE0300F13D0400CD08030040
:1070500081090300B7FE0300B7FE0300B7FE03007B
:10706000B7FE0300B7FE0300B7FE0300B7FE030040
:10707000B7FE0300B7FE0300B7FE0300B7FE030030
:10708000B7FE0300F1200400B7FE0300B7FE0300C3
:10709000B7FE0300B7FE0300B93B0300B7FE0300D1
:1070A000B7FE0300B7FE0300B7FE0300B7FE030000
:1070B000B7FE0300B7FE0300000000000000000060
:1070C000B7FE0300B7FE0300B7FE0300292A040041
:1070D000B7FE0300B7FE0300B7FE0300B152030082
:1070E0004D930200B7FE0300B7FE0300000000004E
:1070F00000000000B7FE030000000000A12A040009
:10710000000000000000000000000000000000007F
:10711000000000000000000000000000000000006F
:10712000000000000000000000000000000000005F
:10713000000000000000000000000000000000004F
:10714000000000000000000000000000000000003F
:10715000000000000000000000000000000000002F
:10716000000000000000000000000000000000001F
:10717000000000000000000000000000000000000F
:1071800000000000000000000000000000000000FF
:1071900000000000000000000000000000000000EF
:1071A00000000000000000000000000000000000DF
:1071B00000000000000000000000000000000000CF
:1071C00000000000000000000000000000000000BF
:1071D00000000000000000000000000000000000AF
:1071E000000000000000000000000000000000009F
:1071F000000000000000000000000000000000008F
:10720000F1EE103A43F08073E1EE103A704700BFA0
:1072100010B5054C237833B9044B13B10448AFF3D0
:1072200000800123237010BD906300200000000047
:10723000D411050008B5034B1BB103490348AFF354
:10724000008008BD0000000094630020D4110500F8
:10725000154B002B08BF134B9D46A3F5803A002128
:107260008B460F461348144A121A22F0E7F90F4BC7
:10727000002B00D098470E4B002B00D098470020E1
:10728000002104000D000D48002802D00C48AFF387
:10729000008022F069F9200029001CF03FFE22F056
:1072A0003DF900BF000008000000042000000000BD
:1072B0000000000090630020F0A200200000000009
:1072C000000000007CDF70472DE9F0432DED028BBC
:1072D000B24CCBB018F0F0FD226841F28733801A2F
:1072E000984204D84BB0BDEC028BBDE8F08318F097
:1072F000E3FD0BA90346AA48236000F09FFEA948BE
:107300009FEDA98A0CF026FCDDED0B7A67EE887AFA
:107310000646FDEEE77AA54817EE903A08A9022244
:10732000ADF820300AF0BCFA002E40F06381DDEDAC
:107330000C7A9F4867EE887A0DF12201FCEEE77A1D
:10734000022217EE903AADF822300AF0A9FA9DF821
:107350003930002B40F0DE819DF834309FED957A76
:10736000954807EE903AF8EE677A09A967EE877AB2
:107370000222FCEEE77A1DAC17EE903AADF824300D
:107380000AF08EFABDF936304FF6FF72002BADF8D9
:107390002620C0F2E38003EB830303EB83039B000F
:1073A0008648ADF826300DF1260102220AF078FA5F
:1073B0009DF838309FED7F7A814807EE903AF8EEDD
:1073C000677A0AA967EE877A0222FCEEE77A17EE5F
:1073D000903AADF828300AF063FADDED197A794871
:1073E000B6EE007A77EE877A0222FCEEE77A0DF1AC
:1073F0002A0117EE903AADF82A300AF051FA724B92
:107400009DF8402093E8030084E80300002A00F080
:10741000AC809DF84930002B00F0A7800DF14B00A7
:107420000DF149010DF1460211AB0DF14D05CDE90C
:107430000121CDE903050093644A10ABAD210DF1A4
:107440007B0022F081FF204623F011F8604AC0F152
:10745000B4010746201822F077FF9DF85130002B29
:1074600000F08A80204623F002F89DF85230002B6D
:1074700000F049819DF85B30002B00F044810DF154
:107480005F030DF15B0116AA0DF15D0504930DF18B
:107490005603CDE90032CDE902154C4AC0F1B401E2
:1074A0000DF15203204422F04FFF204622F0DFFF6F
:1074B0000546199821F0ECFA804689466019C5F115
:1074C000B401CDE90089434A22F03EFF05449DF80E
:1074D00050004149414B424A002808BF0B46C5F1C4
:1074E000B401601922F030FF05443E4AC5F1B401F1
:1074F000601922F029FF9DF868200544002A45D034
:107500001C9821F0C5FA02460B461B98CDE90223D0
:1075100021F0BEFAC5F1B40702460B462544CDE979
:1075200000233946304A284622F00EFF204622F03A
:107530009EFF214682B22D480AF0B2F9002E3FF498
:10754000D1AE204622F093FF214682B227480AF0AE
:1075500013FA4BB0BDEC028BBDE8F0830DF12601B0
:10756000022216480AF09CF922E7214AAD210DF1CA
:107570007B0022F0E9FE66E707F1090560191C4A65
:10758000C7F1AB0122F0E0FE0544A0E7184AC5F1BF
:10759000B401601922F0D8FEC8E700BF9C66002045
:1075A000C4670020E86F00200000C842EC6500209E
:1075B0001C640020E438DE417C6500204466002025
:1075C00024650020CC64002064C7040070C7040058
:1075D00090C704009CC7040060C7040058C704009B
:1075E000A4C70400B0C70400B8C70400C4630020E7
:1075F0006CC7040008A9022273480AF0BDF9DDED4A
:107600000C7A724867EE887A0DF12201FCEEE77A77
:10761000022217EE903AADF822300AF041F96B4899
:107620000DF1220102220AF0A7F99DF83930002B52
:1076300040F09D809DF834309FED657A654807EEF7
:10764000903AF8EE677A09A967EE877A0222FCEE93
:10765000E77A079117EE903A0B800AF021F9079923
:107660001DAC02225B480AF087F9BDF936304FF6AF
:10767000FF72002BADF8262072DB03EB830303EBD4
:1076800083039B005448ADF8263002220DF12601F9
:107690000AF006F90DF1260102224F480AF06CF9B2
:1076A0009DF838309FED4A7A4C4807EE903AF8EE54
:1076B000677A0AA967EE877A0222FCEEE77A17EE6C
:1076C000903AADF828300AF0EBF80AA902224348B4
:1076D0000AF052F9DDED197A4148B6EE007A77EEFC
:1076E000877A0DF12A01FCEEE77A022217EE903A32
:1076F000ADF82A300AF0D4F80DF12A0102223848F8
:107700000AF03AF97BE6C0F1B401364A204422F08F
:107710001BFECAE6DDED0F7A9FED337A334867EE44
:10772000877A1DACFCEEE77A21460422CDED1D7A66
:107730000AF0B6F89DF834309FED257A254807EE1B
:10774000903AF8EE677A09A967EE877A0222FCEE92
:10775000E77A17EE903AADF824300AF0A1F811E676
:1077600002220DF126011C480AF09AF892E79FEDDB
:107770001E7ADDED0F7A1D4867EE877A1DACFCEEB0
:10778000E77A21460422CDED1D7A0AF089F82146D8
:10779000042216480AF0F0F89DF834309FED0C7A78
:1077A0000C4807EE903AF8EE677A09A967EE877AF7
:1077B0000222FCEEE77A079117EE903A0B800AF06E
:1077C0006FF807994DE700BFEC6500201C640020AE
:1077D000E438DE417C6500204466002024650020FA
:1077E000CC6400206CC7040000007A44746400205C
:1077F0002DE9F0436B4CDFF8E0916B4EDFF8DC8154
:107800006A4F83B020460022012100250BF080FF43
:107810000F2267498DF8045001A8FFF753FD204659
:1078200004210CF01FF9294620460CF069F9614843
:107830000CF010FB48460BF057FC3046122109F0C3
:10784000F7FF2A46304611210AF00AF83046022195
:1078500009F0F4FF304609F0FDFC4046122109F022
:10786000E7FF2A464046112109F0FAFF524E4046F2
:10787000022109F0E3FF404609F0ECFC30461221FA
:1078800009F0D6FF2A463046112109F0E9FF3046BB
:10789000042109F0D3FF304609F0DCFC3846122100
:1078A00009F0C6FF2A463846112109F0D9FF434E98
:1078B000DFF82C813846022109F0C0FF384609F074
:1078C000C9FC3046122109F0B3FF2A463046112187
:1078D00009F0C6FF3046022109F0B0FF304609F03A
:1078E000B9FC4046122109F0A3FF2A464046112167
:1078F00009F0B6FF324F334E4046022109F09EFF99
:10790000404609F0A7FC3846122109F091FF2A46AB
:107910003846112109F0A4FF0221384609F08EFFF4
:10792000384609F097FC28480BF0DEFB3046122160
:1079300009F07EFF2A463046112109F091FF3046BA
:10794000B42104F5C86409F077FF304609F082FCE1
:107950000621204609F07CFA204609F061FA4946E2
:10796000204609F019FA204609F02CFA2046012198
:1079700009F0A0FA4FF4C8722046A02109F096FA47
:1079800020461E2109F090FA2946204609F0F2FA15
:107990000E490F481BF076FC0E4801F0E5F903B0E4
:1079A000BDE8F083E86F0020EC6500207C650020D6
:1079B000C4C70400A0660020746400204466002050
:1079C000CC640020C4630020D4650020D4C7040028
:1079D00060780020F4C70400AC6300201C64002021
:1079E0002465002010B5044B044640F8083B0BF01A
:1079F000B7FB204610BD00BFC8E5040010B5074B1B
:107A0000044640F8183B09F00BFC2046044B40F8B4
:107A1000083B0BF0A5FB204610BD00BFACE6040000
:107A2000C8E504002DE9F043DFF8C091604C614FD8
:107A3000DFF8BC81604E614D85B048460CF0E4F93A
:107A400022465F49484620F087FE684641F61A0103
:107A50000BF08EFB694638460BF062FB68460BF074
:107A60007FFB22464146384620F076FE684642F6C5
:107A70006E210BF07DFB6946304609F09FFE68469B
:107A80000BF06EFB2246294630464E4E4E4F20F0FC
:107A900063FE684642F66F210BF06AFB694630468A
:107AA00009F08CFE68460BF05BFB22462946304607
:107AB000464E20F051FE684642F66D210BF058FB11
:107AC0006946304609F07AFE68460BF049FB2246CB
:107AD000294630463E4E20F03FFE684642F6702171
:107AE0000BF046FB6946304609F068FE68460BF02D
:107AF00037FB224629463046364E20F02DFE68469A
:107B000042F671210BF034FB6946304609F056FE0F
:107B100068460BF025FB2246294630462E4E20F0C3
:107B20001BFE684642F672210BF022FB6946304686
:107B300009F044FE68460BF013FB22462946304606
:107B4000264E20F009FE684642F678210BF010FB25
:107B50006946304609F032FE68460BF001FB2246CA
:107B60002946304620F0F8FD1D491E4E68460BF0B0
:107B70000DFB694638460BF0D3FA68460BF0F0FA75
:107B800022464146384620F0E7FD174968460BF08B
:107B9000FDFA6946304609F011FE68460BF0E0FA3E
:107BA00022462946304620F0D7FD05B0BDE8F083D7
:107BB00000600020AC630020EC650020211203006F
:107BC000FD7902001C640020D4650020746400204C
:107BD0007C6500204466002024650020CC640020E1
:107BE00010C80400C463002000C80400A066002080
:107BF000E5790200002310B5C0E92633044680F879
:107C0000943080F8A03080F8B03001F0ADFB204611
:107C10000122762107F092FEC0B10421204607F030
:107C2000B3FF0221204607F0BFFF0321204607F0E3
:107C3000CBFF0221204607F0D7FF012384F8A030B4
:107C400005490648BDE810401BF01CBBBDE81040CC
:107C5000034902481BF016BB48C8040060780020A6
:107C600020C8040038B590F8A03063B190F8943083
:107C700004464BB918F020F9D4F8982047F22F5356
:107C8000801A984261D838BD18F016F9D4F89C30A3
:107C90009842F8D3204607F00BFF0546002867D02E
:107CA000D4ED017A9FED377AA3682268C4F8A83032
:107CB000F8EE677A012567EE877AC4F8A420C4ED50
:107CC0002B7A3149314884F8B0501BF04FFA3049D3
:107CD0002E481BF04BFA2F492C481BF047FAD4F8DA
:107CE000A40020F0D5FE41EC100B294627481BF0DC
:107CF00099FA294925481BF039FA284923481BF0ED
:107D000035FAD4F8A80020F0C3FE41EC100B294648
:107D10001E481BF087FA22491C481BF027FA21490C
:107D20001A481BF023FAD4F8AC0020F0B1FE41EC65
:107D3000100B294615481BF075FA1B4913481BF018
:107D4000A1FA002384F8943038BD204607F086FE5F
:107D5000054628B9BDE8384014490C481BF092BAD2
:107D600018F0AAF80123C4E9260584F8943038BD38
:107D70000F4906481BF086FA84F8B05084F89450F6
:107D800038BD00BF0AD7233CCCC80400607800206F
:107D9000E0C80400E4C80400F0C80400F8C8040007
:107DA00004C904000CC9040018C9040068C8040010
:107DB0009CC8040000F1A40330B404460D460FCB68
:107DC00085E80F0094F8B00030BC704701490248C4
:107DD00007F0ACBD306E002010670020F0B587B012
:107DE00005460C463948002301AA03A903F084F98B
:107DF000002865D09DF80C209DF80D309DF80F10DF
:107E00009DF806609DF810709DF812E0303AC2EBC4
:107E10004210303B02EB8002303903EB830301EB6D
:107E2000C20203EB830302EB83019DF80E009DF871
:107E300007309DF81320303E06EB860C3038303B7F
:107E40009DF8046003EB4C0300EB80009DF811C02B
:107E500001EB4000303F9DF80510ACF1300C303E96
:107E600007EB870730390CEB470706EB86069DF8D2
:107E700008C001EB4606AEF1300E9DF809100EEB7E
:107E80008E0E303AACF1300C02EB4E020CEB8C0C47
:107E9000DBB23039FFB2F6B201EB4C0180B2D2B2A4
:107EA0005B01A0F2BC7042EA471243EAC623C1F369
:107EB000460142EA40220B432A80238007B0F0BDEE
:107EC00045F621432B80208007B0F0BDA86B002031
:107ED00010B50C46454846491BF048F961784348BF
:107EE0000A221BF0A9FB434940481BF03FF92378C5
:107EF000043B0A2B07D8DFE803F00C1B2E063D508D
:107F00005B0606066E00BDE810403B4937481BF093
:107F1000B9B93A4935481BF029F9606920F0B8FD34
:107F2000BDE8104041EC100B304801211BF06ABA4B
:107F300033492E481BF01AF9A06920F0A9FD41EC45
:107F4000100B012129481BF06DF9BDE810402D49A7
:107F500026481BF097B92C4924481BF007F9218AC1
:107F600022480A221BF0D2FBBDE8104027491F48D7
:107F70001BF088B926491D481BF0F8F8A06820F0CE
:107F800087FD41EC100B012118481BF04BF9BDE8AF
:107F90001040204915481BF075B91F4913481BF0C4
:107FA000E5F8E18B1148BDE810400A221BF0E0BA69
:107FB0001A490E481BF0DAF8E06820F069FD41EC40
:107FC000100B012109481BF02DF9BDE810401449A0
:107FD00006481BF057B9134904481BF0C7F8A18B9A
:107FE0000248BDE810400A221BF0C2BA60780020A7
:107FF00020C90400E0C80400C8C904007CC904000A
:1080000088C904009CC904005CC9040074C9040048
:1080100038C9040048C90400B8C904004CC90400A8
:1080200058C90400A4C9040010B404460FC94C3454
:1080300084E80F005DF8044B704700BF70B5036B18
:108040000B60436B4B6090F898300B72B0F99A302C
:108050004B81B0F846300B730C46436D90F85820B6
:108060004A7305460B61002600F18801082204F1DD
:10807000140022F016FA05F191010622267704F188
:108080001D0022F00EFA84F8236095F8AC3084F8D5
:10809000243095F8C83084F8253005F1C90108224C
:1080A00004F1260022F0FDF9062284F82E6005F185
:1080B000D20104F12F0022F0F4F984F83560D5F8EC
:1080C000DC3095F89C20A363D5F8A0302364D5F864
:1080D000A43084F83C20636470BD00BFB0F8F400A5
:1080E000704700BF014803F04FB900BFC8670020C8
:1080F000F0B50025044695B00560C56580F8485088
:1081000080F858500566A0F86450A0F886502022E8
:108110006630294621F092FA00234FF6FF7284F868
:10812000A850A4F8AA5084F8AC50C4F8B05084F811
:10813000B85084F8C150A4F8C85084F8D25084F8DC
:10814000E05084F8885084F8915084F8985084F86E
:108150009C5084F8F050A4F8F45084F8F650A4F839
:10816000F85084F8FA50C4F8FC50A4F80051C4F850
:108170000451A4F8085184F80A51C4F80C51A4F829
:108180003051C4F8B430C4F8DC30C4F8EC30C4F872
:10819000A030C4F8A430A4F89A20A4F8F22001F08A
:1081A000FDF808B915B0F0BD2F4B304A30481A60C1
:1081B00002F048F802AA034604A92E4802F09CFFE8
:1081C00000283ED002AB0BAF07AEBDF816C000933F
:1081D000294A8DF82E503B4630460D21ADF82CC073
:1081E00022F0B2F8384625491723324603F09AF9AF
:1081F0000FAB07CB1B7884F82030A1610E9B0D9943
:108200000C9FE261251D139A6061C4E9031328469F
:10821000A760626203F0D0F8D8B1194919481AF082
:10822000A5FF314617481BF09DF8174800F09CFD4C
:10823000164928461BF026F8284603F04BF815B0DF
:10824000F0BD134B0FCB07AE354607C50BAF2B70F8
:10825000C8E710490B481BF015F8314609481BF0D8
:1082600081F815B0F0BD00BF206C0020DD7D02005C
:10827000586B0020A86B00204CCA0400B06B002093
:1082800094CA040060780020B8CA0400D8CA040068
:1082900058CC040058CA040070B52DED028B0E783E
:1082A0008D784C78CB78A6F1300101EB8106303C1B
:1082B000A5F1300104EB460401EB8101303B03EBF7
:1082C0004103E4B2C4EB0411DCB204EB810457496E
:1082D00090F8F030A4B2A1FB041482B00546164613
:1082E000A40823B1B0F9F230A34200F09180B5F8B0
:1082F00008314F48002B6AD101F0ACFF07EE900A1D
:10830000B8EE678AB5EEC08AF1EE10FA40F28580C9
:10831000B5F8F4209FED476A9FED477A07EE902A63
:10832000F8EE677AF6EE006A67EE867A67EE887A8C
:10833000F4EEC77AF1EE10FA88BFF0EE477A77EEE6
:10834000A67AFCEEE77ACDED017A9DF8043085F847
:10835000F6303A49A5F8F82039481AF007FF0A2202
:1083600095F8F61036481BF067F9364934481AF08C
:10837000FDFE18EE100A20F08BFB41EC100B0221E1
:108380002F481AF04FFF30492D481AF0EFFEB5F88C
:1083900000112B480A221BF0B9F92C4928481AF081
:1083A00071FF27480CF04CFC70BB00230120A5F89E
:1083B000F240A5F8F430A5F80031C5F80431A5F86D
:1083C000083185F8F00002B0BDEC028B70BDD5ED30
:1083D000417AF8EE676A07EE903AF8EE677AB6EE01
:1083E000007A86EEA78A78EE077AFCEEE77A17EE37
:1083F000901A01F031FFB5EEC08AF1EE10FA87DC79
:10840000B5F8F4200023A2E70D480CF01FFBCCE7E1
:10841000002002B0BDEC028B70BD304601F048F97F
:108420009FED0B8A20EE088AE5E700BFCDCCCCCCCF
:10843000586B00203EC3AE390000C84268CC04002F
:1084400060780020A0CC0400C0CC040090DD0400C3
:1084500000007A442DE9F04F0446ADF50D7D00682B
:10846000B4F864509DF85862339601308946164638
:108470001D932060002D00F06C81236EB3FBF5F599
:10848000EBB21E933093B4F88630002B00F0688175
:10849000B4F86630B4F86820B4F86A10B4F8840010
:1084A000934236BF134600220122994288BF0B46F1
:1084B000B4F86C1088BF02228B4238BF0B46B4F868
:1084C0006E1038BF03228B4238BF0B46B4F87010D1
:1084D00038BF04228B4238BF0B46B4F8721038BF45
:1084E00005228B4238BF0B46B4F8741038BF062201
:1084F0008B4238BF0B46B4F8761038BF07228B4248
:1085000038BF0B46B4F8781038BF08228B4238BF0A
:108510000B46B4F87A1038BF09228B4238BF0B469D
:10852000B4F87C1038BF0A228B4238BF0B46B4F82F
:108530007E1038BF0B228B4238BF0B46B4F8801038
:1085400038BF0C228B4238BF0B46B4F8821038BFBC
:108550000D228B423CBF0B460E22984294BF104620
:108560000F2001F095F839AF03460546C24A384658
:10857000082121F0E9FE2BB21F930822494600256D
:1085800004F1880021F08DFF062284F890503146D6
:1085900004F1910021F085FF1E9A94F8583084F878
:1085A00098201F9A84F89750A4F89A20002B40F046
:1085B000E280B24B0DF1EC081B68A8F800301A0CF1
:1085C000ADF8F430ADF8FC301D9B8DF8EE200DF1C8
:1085D000F40B0DF1FC0A8DF8F6208DF8FE20002B2F
:1085E00000F0F18037AB31931846A34A94F8F63087
:1085F000062121F0A9FE01232F93002335930025A6
:1086000036939F488DF8D35035A936AA0DF1D30380
:1086100002F0FCFD002840F0E28094F8293094F844
:108620002A20206B2093219220F032FA02460B463A
:10863000606B2568CDE9222320F02AFA02460B461A
:10864000E06B218F2A91CDE9242320F021FA024604
:108650000B46206CCDE9262320F01AFAB4F844C06A
:10866000CDF8ACC0B4F846C0CDF8B0C0B4F830C155
:10867000CDF8B4C002460B46B4F8F4C0B4F800110B
:108680008048CDF8B8C0CDE92823329101F0E2FD51
:108690009DED227B8DED047B9DED267B8DED0A7B90
:1086A0009DED247BCDE900968DED067B2199209BE5
:1086B000039184462A98089002932B462D9DB4F886
:1086C000F8E017952B9D0E959DED287B319D2E9EF4
:1086D00016952F9D329918962C9E19918DED0C7B35
:1086E000CDF868C00F96CDE914A5309D664A119764
:1086F000CDE9128B41A84FF4967104F1040910954D
:10870000CDF86CE021F020FE484602F055FE00282E
:1087100040F0C0805D4841A91AF024FE5B480CF08F
:108720008FFA002840F0A3800023A4F830311D9B6D
:10873000002B68D1002104F1660020222166A4F8F4
:108740006410A4F886100DF50D7DBDE8F04F20F003
:1087500075BFB4F8863030951E95002B7FF498AE27
:10876000464B39AF1B683B801A0C4FF0FF338DF836
:10877000E6201F9301E7E06C20F08AF90DF1EC0888
:10878000CDE90001424A0821404621F0DDFD206D7F
:1087900020F07EF90DF1F40BCDE900013C4A0821EF
:1087A000584621F0D1FD606D20F072F90DF1FC0A00
:1087B000CDE90001364A5046082121F0C5FD1D9B38
:1087C000002B7FF40FAF2D4B37AA1B683192114657
:1087D0001A0C0B801D9B8DF8DE202F930DE79DF862
:1087E000D320DDED360A9DED350A3146484601F0CD
:1087F000C5F9359B369AC4F8A0300123C4F8A420EB
:1088000084F89C3009E7012384F80A3117F054FBFF
:10881000236BC4F8103194F85830626BC4F81421FB
:10882000C830C4F80C01002B40D10023B4F8462016
:10883000DDED1E7AC4F8183107EE102A1F9B94F85C
:10884000AC20B8EE477AF8EE677A23EAE373A4F82F
:108850001C3184ED497AC4ED487A4AB3D4F8B42087
:10886000D4F8EC30C4F82821C4F82C3162E707486A
:108870000CF0ECF858E700BFE4CC04006CC704002F
:10888000A86B0020586B0020F0CC0400607800201A
:10889000E8CC040041A948461AF064FD339B002B44
:1088A0003FF438AF484602F015FD33E7636DBDE78E
:1088B0000022D5E791F82030002B6CD02DE9F0474D
:1088C0002DED028B4B7880F829308B7880F82A3098
:1088D000012380F84830026EB0F864300D46C97844
:1088E00004460A440133A888226688B0A4F864309C
:1088F000002940D1B14801F0A5FC03AA034605A90F
:10890000AF4802F0F9FB064670BB0746B4F8F430F6
:1089100094F8FA200133A4F8F430002A40D101235E
:1089200084F8FA3017F0C8FAB4F83031C4F8FC0013
:1089300001332046A4F830312946FFF7C9FAA1488F
:108940000CF07EF940BB2B78043B0A2B3ED8DFE8C5
:1089500013F0EE00E800E2003D00DC00D500CF009F
:108960003D003D003D0073006A7803A92046FFF7F3
:1089700093FC0746CAE700F07BFE00B204EB400020
:10898000B0F866300133A0F86630B4F886300133B1
:10899000A4F88630AEE770478A480CF057F8D2E763
:1089A00017F08AFAD4F8FC30A0EB030840F6B8338D
:1089B000984500F2C280D4F80401B4F8083140446C
:1089C0000133C4F80401A4F80831ABE74FF0000903
:1089D000C8467A4801F026FC0546B8B91EB317F020
:1089E0006BFAE065B9F1000F40F0BA80002F18BFB4
:1089F000B846CDF800803B4603AA05A92046FFF7FC
:108A000029FD08B0BDEC028BBDE8F08717F054FAE1
:108A1000E36DC01AA842E1D2B8F1000FDED1002FF9
:108A2000EFD0002EDBD1684966481AF02BFC08B065
:108A3000BDEC028BBDE8F08794F8A880AA8BA4F85F
:108A40004420B8F1000F00F09380B4F8AA309A42A5
:108A5000BCD019B213B25B1A8033594201F07F01C6
:108A600003F07F0394F8AC50A4F8AA2058BF4B42FF
:108A70009BB208EE103A002D00F08980D4ED2D7ADB
:108A80004FF000099FED517AB8EE488A002528EE94
:108A9000078A04F1E00A78EE277AC4ED2D7A17F000
:108AA0000BFA012384F8C830C4F8B000082205A9E5
:108AB00004F1C90021F0F5FC062203A984F8D15085
:108AC00004F1D20021F0EDFCD4F8B43084F8D85091
:108AD000C4F8DC305046092205A921F0D0FC00285A
:108AE0004DD1D4ED3B7A38EE278A84ED3B8A70E78E
:108AF000EB6863634FF00009C8466AE7EB8BA4F8A4
:108B000046304FF00009C84663E7AB6823634FF077
:108B10000009C8465DE72B8A23874FF00009C84645
:108B200057E7AB6923644FF00009C84651E76B690A
:108B3000E3634FF00009C8464BE7B4F8003124491D
:108B400020480133A4F800311AF010FB41460A22F4
:108B50001C481AF059FD1F491A481AF093FBE1E628
:108B60001D4918481AF08EFB1C4800F0FDF83DE73F
:108B70000123A4F8AA2084F8A830C14629E750466A
:108B8000082205A921F08DFC84F8E850ADE7012307
:108B900084F8AC30082205A904F1B80021F081FC6A
:108BA00084F8C050062203A904F1C10021F079FC29
:108BB000C146DFED0B7A84F8C75063E7586B00209D
:108BC000A86B002060780020BCCD0400CDCC4C3ECA
:108BD00044CD040060CD0400FCCD040028CE040088
:108BE0000000000030B590F8AC3083B0044633B9D3
:108BF00001F08EF894F80A3143BB03B030BD17F092
:108C00005BF9D4F8B0202F4B801A9842F0D394ED42
:108C10002D0AF2EE047A20EE270A1FF0A3FD2A495E
:108C200005462A481AF0A2FA0A22294627481AF0CD
:108C3000C5FC2748294600F0D5F8002384F8AC305D
:108C400001F066F894F80A31002BD6D017F034F909
:108C5000D4F80C319842D0D300231E4884F80A314E
:108C600001A9019302F0D8FA60B91B4917481AF01C
:108C700009FB16480BF0E4FF0028BED013480BF0A8
:108C8000E5FEBAE7154911481AF0FCFA0F480BF057
:108C9000D7FF98B994ED4B3AD4ED4A2A94ED492A7E
:108CA000D4ED481AB4F81C1194ED461AD4ED450AD7
:108CB00094ED440A019801F097F89EE703480BF001
:108CC000C5FEE7E740771B00DCC9040060780020A0
:108CD0001CCA0400A86B002040CE040094CE0400FF
:108CE00070B58AB000F05AFBE8B1154A1549164C28
:108CF000172301A802F016FC05AB0FCB029D65609F
:108D000004F1100507C5DDE90361099A2B702046BF
:108D1000C4E90261226202F04FFB50B10B4B012209
:108D20001A700AB070BD0A490A481AF0ABFA0AB0C4
:108D300070BD094907481AF0A5FA0AB070BD00BF16
:108D40002CCF0400B06B0020F86800201C690020C4
:108D5000E4CE04006078002038CF0400014802F01F
:108D600013BB00BFF8680020174B1B7803B970478E
:108D700010B5044686B0154801F064FA01AA03460E
:108D800003A9134802F0B8F9C0B103A911481AF0B9
:108D90001BFA11490F481AF0E9F90E4801A91AF017
:108DA00013FA0E490B481AF0E1F9214609481AF066
:108DB00069FA084802F08EFA06B010BD0849054865
:108DC0001AF0D4F9EDE700BF1C690020586B0020B1
:108DD000A86B0020F868002028D20400E0C8040036
:108DE00078CF04001C4B1B7803B9704730B505469B
:108DF00087B01A480C4601F025FA01AA034603A9D8
:108E0000174802F079F908B303A916481AF0DCF9FB
:108E1000154914481AF0AAF9124801A91AF0D4F910
:108E2000124910481AF0A2F929460E481AF09EF984
:108E30000F490C481AF09AF921460A2209481AF0FB
:108E4000BDFB084802F046FA07B030BD09490548A5
:108E50001AF08CF9E4E700BF1C690020586B002071
:108E6000A86B0020F868002028D20400E0C80400A5
:108E700008D4040078CF0400084B1B7863B170B4A9
:108E8000074D084C2E68084D0660246828780C6051
:108E9000107070BC18467047184670472C69002047
:108EA00020690020246900202D690020014810F06D
:108EB0000FB900BF3069002008B5012002F0E0F8CA
:108EC00030B9114A114B012118601170012008BD01
:108ED0000F4801F0ABF901460E481AF03BFD0E4871
:108EE00001F03AFC0C4801F07FFC074B00221A709D
:108EF00016F0E2FF054B0949024609481A601AF0CC
:108F0000C1F9012008BD00BF2E690020286900209A
:108F1000586B0020646A0020746B00208CCF040022
:108F2000607800202DE9F047DFF83C8398F8004096
:108F3000012C8EB000F09C81B34DB44FB44E284646
:108F40001AF098FC0346002B284619DD1AF09AFC0B
:108F5000C4B22146384610F03FFC0D2C7FD00A2CBD
:108F60007DD03378AB49582B03F10102E7D828466E
:108F7000CC5432701AF07EFC0346002B2846E5DC08
:108F8000A24C94F8383063B194F84830002B40F08C
:108F9000248194F88860002E7CD135464FF0FF394B
:108FA0000DE0002694F88850002D74D194F84830D4
:108FB000002B6CD00023D4F84C9084F84930964FA5
:108FC000DFF8A8A23B684B4503D19AF80030AB42CA
:108FD00034D0924992481AF0C9F894F84830002BDE
:108FE0006ED0904810F0DCFC0A2201468C481AF042
:108FF00023FB8D498A481AF0B9F88A4810F0DCFC46
:109000000A22014686481AF017FB874984481AF05D
:10901000ADF8844810F0E8FC0A22014680481AF0B6
:109020000BFB82497E481AF0A1F87D480A222946A6
:109030001AF03CFBC7F800908AF8005026B17C4833
:1090400001F0FCF8A8425ED97A4C16F035FF226890
:10905000794B801A984238D80EB0BDE8F0876D4C35
:109060003378764900222046002B3FF468AFE25463
:1090700021F04EFA0346724969482BB11AF076F88E
:10908000674821461AF06EF90023337057E74FF016
:10909000FF3994E7002616F00FFFD4F88C30C01A81
:1090A000B0F5FA6F9CBF002384F8893094F84830FB
:1090B00094BF94F890500025002B7FF47BAFE6E737
:1090C000604957481AF052F8ABE75F4954481AF024
:1090D0004DF829460A2252481AF0E8FA5B48FFF791
:1090E00043FE012001F0D8FF47481AF079FB5848A9
:1090F00001F04CFB012388F8003016F0DDFE206003
:109100000EB0BDE8F0872378002B40F0E180514895
:1091100010F016FC01464F48079110F021FC024662
:109120004C48069210F030FC03463E48059310F080
:1091300037FC06463B4810F03FFC0446394810F027
:1091400053FCDDE9053207990290CDE900640AA8D5
:1091500010F062FE0AA810F0ABFE3F49044630480A
:109160001AF004F829460A222D481AF09FFA002323
:1091700009A8099301F0ACFC214605460CA810F0A3
:1091800055FD0CA801F0BAFC002D00F09D80099B54
:1091900032492348E41A19F0E9FF21460A222048FF
:1091A0001AF0C4F92E491E481AF06CF82D482146D1
:1091B000FFF718FE012001F06FFF13481AF010FBB3
:1091C000234801F0E3FA012388F8003016F074FE1A
:1091D000184B18600EB0BDE8F08716F06DFE636C9A
:1091E000C01AB0F5FA6F3FF6DCAE94F84830002BA9
:1091F0003FF4CFAE16F060FE666D801BB0F5FA6FDF
:109200008CBF00260126CDE6646A0020306900206C
:10921000626A0020086A002004600020F0CF040089
:10922000607800207869002000DC040018D0040079
:10923000586B0020286900209FBB0D00D8CF040088
:10924000DCCF04000CD00400F0D0040030D10400C6
:10925000746B0020686900202CD0040058D00400F2
:1092600088D004008CD004002E6900200860002003
:10927000284D16F021FE2A68274B801A98427FF667
:10928000EBAE2649264819F0FDFF204601F0F8FE16
:1092900000283FF4E1AE234800F0C8FF0146224811
:1092A0001AF058FB214801F057FA204801F09CFAC7
:1092B000002388F8003016F0FFFD1D4903461848CA
:1092C0002B6019F0DFFFC7E61A48FFF74DFD71E785
:1092D00016F0F2FD636BC01AB0F5FA6F3FF617AFE8
:1092E0001548164E164C10F0DBFA51EC100B1FF01F
:1092F000FFFE03461048336010F0FAFA51EC100BF1
:109300001FF0F6FE0F49104B206001220D701A70FD
:10931000FDE600BF28690020FF5B2605A8CF0400FA
:1093200060780020586B0020646A0020746B002075
:109330008CCF0400C4D004003069002020690020D4
:10934000246900202D6900202C69002001481AF0B2
:109350002DBD00BF646A00200248FF2204211AF0DC
:1093600019BD00BF4C99002010B5094C237803B1FA
:1093700010BD08220721074807F0DEF9054807F06D
:1093800061F90549034807F0B9F90123237010BDBD
:109390000C6B0020306E0020A0860100144A38B506
:1093A000147814B1134B187838BD012529460320D1
:1093B000157019F0DFFD2946032019F05FFE2246E3
:1093C0002B4602210C480B4C07F022FC0A4807F000
:1093D00073FB0A490A48032201F0F6FF20700028B7
:1093E000E2D10849084819F04DFF207838BD00BF88
:1093F0000E6B00200D6B0020A86F002000093D00BF
:10940000B06B002054D104006078002000B583B018
:1094100009230093044905480A2328221AF090FCE6
:1094200003B05DF804FB00BF00800240646A0020C6
:10943000254870B54FF4E13105460BF0E9FB0121F9
:109440000B2019F097FD00210B2019F017FE16F0E4
:1094500033FD40F6B736044608E016F02DFD001B3C
:10946000B0424FF00A0006D816F032FD28460BF045
:10947000E7FB0028F1D01549134819F003FF144801
:1094800001F056F901F0D4FB124801F0D3F812486C
:1094900001F00CFEFFF724FC00F01CFB0F48FFF767
:1094A00063FC0F48FEF724FE0E4800F093FA0E48C6
:1094B000FEF7A0FB074800F0D1FE00B970BDBDE883
:1094C0007040FEF795B900BF6078002080D104009D
:1094D000746B0020586B0020A86B0020A4D10400FE
:1094E000C4670020106B0020106700202DE9F041B8
:1094F00098B001F0A7FB534801F0FCFD524800F082
:10950000ADFEB0B95148FEF7ADFB504803A9FEF7D8
:1095100051FC002850D14E4800F06AFA4C48694688
:1095200000F02EFA40B94B48FFF75CFB18B0BDE8DD
:10953000F081FDF7C9FEE5E768460FA900F0C6F81F
:10954000054600283DD00FA94248FFF7B3F941482E
:10955000FEF7C4FD404A0346202107A820F0F4FE90
:109560003E4807A919F030FE9DF80830002B56D070
:1095700000253A4E3A4FDFF8F4802B460BE01AF004
:109580005BF83946304619F0F1FD01359DF80820A9
:10959000EBB29A4243D918AAD418304614F8601C8A
:1095A0000F294FF01002EAD8414619F0DFFD14F8F8
:1095B000601C10223046E2E7264803A9FEF734FD7E
:1095C000A9E72849254819F05DFE2749234819F0E5
:1095D000FBFD9DF8083013B3204E214FDFF88C803F
:1095E0002B460BE01AF028F83946304619F0BEFD3C
:1095F00001359DF80820EBB29A4210D918AAD41868
:10960000304614F8601C0F294FF01002EAD841468A
:1096100019F0ACFD14F8601C10223046E2E70F4848
:1096200019F080FE0D480BF00BFB00283FF47BAFD8
:109630000A480BF00BFA0748FFF7D4FA18B0BDE858
:10964000F08100BFA86B0020586B0020106700203D
:10965000106B0020C4670020C0D104006078002097
:1096600028D20400DCD1040004D2040070EA040013
:1096700007EE900AB8EE670ADFED047A08B520EE2F
:10968000270A1FF06FF800F00F0008BD610B363D90
:1096900007EE900A9FED057AF8EE677A67EE877A13
:1096A000FCEEE77A17EE903A98B270470000B441AA
:1096B00007EE900A9FED047AF8EE677AB0EE040A9E
:1096C000A7EE870A704700BF0000803D002370B5F9
:1096D00081F82030427A0C46002A63D0027A002AB0
:1096E00060D0013A50FA82F1451E41F2210228E091
:1096F0005B009EB21BB2002B2FDB7600B3B236B2FA
:10970000002E30DB5E00B3B236B2002E31DB5E00DD
:10971000B3B236B2002E32DB5E00B3B236B2002EE8
:1097200033DB5E00B3B236B2002E34DB5E00B3B280
:1097300036B2002EACBF5B0082EA4303A9429BB263
:109740002ED015F8016F83EA06231E04D0D582EAD5
:10975000430633B2002BB6B2CFDA82EA46031EB21A
:10976000002E9BB2CEDA82EA43031EB2002E9BB2D9
:10977000CDDA82EA43031EB2002E9BB2CCDA82EA33
:1097800043031EB2002E9BB2CBDA82EA43031EB221
:10979000002E9BB2CADA82EA43031EB29BB2C8E72C
:1097A000002B5FD103789FED687A1A092270037845
:1097B000C3F3C003A370037803F0070363708378D7
:1097C00007EE903AF8EE677A67EE877AFCEEE77A72
:1097D00017EE903AE370417949B15C4D4FF4AB73A9
:1097E00003FB01F3A5FB0313DB0903F10901931E3E
:1097F000A1800C2B2BD8DFE803F0262A8C07752AD2
:109800003B51602A2A2A7000C3780179FF2B00F0AF
:109810009380C1F30112C2EB421002EB800203EB12
:1098200042039BB2002B00F0878007EE903A4B0674
:10983000F8EEE77A4CBFDFED466ADFED466A86EE6A
:10984000A77A84ED067A012084F8200070BD424991
:10985000424819F08BFC21784048102219F026FF6D
:10986000002070BD3E493D4819F00CFD002070BD40
:10987000C27803799FED3B6A9FED3B7ADFED3B6A4F
:1098800043EA02231BB207EE903AF8EEE77AA7EE1E
:10989000867A67EE267AC4ED027AD4E7C3789FED24
:1098A0002A7A07EE903AF8EE677A67EE877AFCEE4E
:1098B000E77A17EE903AE383C5E70279C3789FED24
:1098C0002C7A121143EA022307EE903AF8EE677AF7
:1098D00067EE877AC4ED037AB5E7C37803F07F03B8
:1098E000A383B0E7B0F80330C2785BBAFF2A9BB21B
:1098F00028D09B0907EE903A9FED1E7AF8EE677A22
:1099000067EE877AFCEEE77A17EE903A9BB22382F5
:1099100099E7B0F80330C2785BBAFF2A9BB20ED049
:109920009B0907EE903A9FED147AF8EE677A67EE9E
:10993000877AC4ED057A86E79FED107A81E7DFED3F
:109940000F7AF6E70023E2E7DAFECD3F81808080E0
:10995000000034460000344460D2040060780020E7
:109960002CD20400CDCCCC3B000000C2E4380E3F2A
:10997000CDCCCC3D0C04E13F0AD7A33C0000000055
:10998000437B9BB100F10802914230B401D288427E
:109990000ED342680A6082684A60082501240022CA
:1099A0000D724C72427330BC1846704718467047AF
:1099B00002790A7042794A7082798A70C279CA70D3
:1099C000027A0A71427A4A71827A8A71C27ACA71BB
:1099D000E3E700BF10B50446FFF7BEFC03484FF4B1
:1099E000965119F0B7FF0023A38110BD4C990020B8
:1099F0002DE9F843037B04468BB12D4BDB68D8017E
:109A00003ED417F071FC2B4BA0FB0301830A43EA01
:109A10008153216845F261125B1A93423CD8264D6E
:109A2000234EDFF89080254F0EE03B68DB0719D509
:109A30007A689209237B2260E2180133DBB2082B9B
:109A400082F80490237317D0284619F013FF0346B9
:109A5000002B28460EDD19F015FFF368DA015FFAD6
:109A600080F9E2D417F040FCA0FB0801820A42EA28
:109A70008152DFE7BDE8F8834FF48073A381E3E709
:109A80000E4B1A68D107BCD55B6821689B0945F26B
:109A900061125B1A9342C2D909490A4819F066FB60
:109AA000217B08480A2219F001FE00232373B6E740
:109AB000F0ED00E040420F004C990020001000E063
:109AC00088D2040060780020014801F05DBC00BF2E
:109AD000206B00202DE9F0418AB0FFF75FFC30B326
:109AE0001E491F481F4C01F087FD1C4A1C491723C3
:109AF000804601A801F016FD05AB0FCB04F110055F
:109B000007C5DDE902760499099A2B702046C4E95D
:109B10000176E160226201F04FFCB8B1B8F1000FAC
:109B20000CD0114B01221A700AB0BDE8F0810F4928
:109B30000F4819F0A7FB0AB0BDE8F0810D49204697
:109B400019F0A0FB204601F0C5FBEAE70A490848E6
:109B500019F098FB0AB0BDE8F08100BF30D30400D3
:109B6000B06B0020206B0020446B0020D4D2040096
:109B70006078002084D3040040D30400334B1B786A
:109B8000002B61D02DE9F047DFF8D480DFF8D490C6
:109B900098F8003010EE104A10EE905A0F46164614
:109BA0008BB1D9ED007ADFF8C0A0F4EE407AF1EE87
:109BB00010FA0AD1DAED007AF4EE607AF1EE10FADA
:109BC00003D1BDE8F087DFF8A0A00146204819F0D6
:109BD000FBFA20491E4819F0C9FA39461C4819F009
:109BE000F3FA1C491A4819F0C1FA20461EF050FF3A
:109BF00041EC100B0521164819F014FB15491448C7
:109C000019F0B4FA28461EF043FF41EC100B052171
:109C10000F4819F007FB0F490D4819F0A7FA314614
:109C20000A220B4819F042FD094801F053FB0123B9
:109C3000C9F80040CAF8005088F8003006490748C3
:109C4000BDE8F04719F01EBB704700BF446B002011
:109C5000206B0020B0D30400B4D30400607800204F
:109C6000506B0020486B00204C6B00202DE9F04128
:109C700005460C4620482149164619F077FA294630
:109C80001D4819F0A1FA1E491B4819F06FFA314618
:109C900019480A2219F0C4FC1A49174819F066FA43
:109CA00026B32644144D184FDFF86080013E013C76
:109CB00007E019F0C1FC3946284619F057FAB442BA
:109CC00014D014F8011F0F294FF010022846F0D8C5
:109CD000414619F04BFA21781022284619F0ACFCC5
:109CE0003946284619F042FAB442EAD1BDE8F041BB
:109CF000014819F017BB00BF60780020E4D30400CE
:109D0000FCD3040000D4040028D2040070EA04004C
:109D1000F0B52A4F3B7891B00BB911B0F0BD28488F
:109D200019F0A8FD002832DD254D6E46002406E01E
:109D3000402C0BD019F0A6FD06F8010B0134284683
:109D400019F098FD0346002B2846F1DC1D482246F9
:109D50006946FFF78BFF1C491C4819F093FA1B4812
:109D60000AF06EFF78B91A48FEF7FEFF144819F0A2
:109D700037FD184800F038FD022001F08DF900236E
:109D80003B7011B0F0BD11480AF060FEEBE716F031
:109D900093F8114A114B1268801A9842BDD91049A4
:109DA0000A4819F06FFA09480AF04AFF08B90D4845
:109DB000DAE706480AF04AFEF9E700BF516B0020D7
:109DC000646A00200CD404002CD4040060780020C5
:109DD00070D40400746B0020546B00201FBF02007D
:109DE0008CD40400D8D404002DE9F047DFF8489261
:109DF0002DED088B99F80040A6B0002C40F0B38000
:109E0000074602208846B0EE408AF0EE608AB0EE47
:109E1000419AF0EE619AB0EE42AAF0EE62AAB0EE7C
:109E200043BA01F02DF978B3764800F003FA014601
:109E3000754819F08FFD754800F0C2FC734800F0BA
:109E4000A5FC04A8012303AA0821039400F0C8F983
:109E5000002840F0B08016F02FF86B4E82460024A8
:109E600016F02AF8A0EB0A03F92B2AD8651E06ABD8
:109E70001D443F2C18D9304619F0FCFC0028304610
:109E8000EEDD19F0FFFCF6E76149624819F0FAF9D6
:109E900060480AF0D5FE00286BD10024204626B089
:109EA000BDEC088BBDE8F087304619F0E3FC0346B3
:109EB000002B3046D4DD19F0E5FC013405F8010F24
:109EC000D7E7002C40F094800024CDF80080B0EE5D
:109ED0004B3AF0EE6A2AB0EE4A2AF0EE691AB0EE7A
:109EE000491AF0EE680AB0EE480A3B4604AA8021FF
:109EF00006A8049400F0A2F8044600283DD0049D72
:109F00004148942119F0D8FCC3213F4819F0D4FCF2
:109F1000C5F307213C4819F0CFFCE9B23A4819F0E3
:109F2000CBFC2A4606A9384819F0EAFC3A482A46EA
:109F300006A9FFF79BFE3949364819F0A3F93548C1
:109F40000AF07EFE88B93648FEF70EFF012389F835
:109F5000003015F0B1FF334B1860204626B0BDEC41
:109F6000088BBDE8F08730498FE72A480AF06EFD7C
:109F7000E9E728480AF06AFD8FE72C49254819F0DF
:109F800081F924480AF05CFE002837D12848FEF702
:109F9000EBFE1D4819F024FC1C4800F025FC0220B3
:109FA00001F07AF80023204689F8003026B0BDEC95
:109FB000088BBDE8F087039C1348942119F07CFCC2
:109FC000C321114819F078FCC4F307210E4819F099
:109FD00073FCE1B20C4819F06FFC224604A90A4850
:109FE00019F08EFC0C48224604A9FFF73FFE32E729
:109FF0001048224606A9FFF739FE65E705480AF032
:10A0000025FDC3E7586B0020646A0020746B0020B4
:10A0100044D50400607800208CD5040028D60400C4
:10A0200074D60400546B0020F4D40400B0D50400AE
:10A03000FCD5040090D50400516B00202DE9F041BF
:10A040002DED088BE0B005460E46144603A83022DD
:10A0500017A9F0EE60AAB0EE41AAF0EE619AB0EE58
:10A06000429AF0EE628AB0EE438A1F46BDF8B8818C
:10A070008DED010A00F0CEFB9DED010A9FED57BA70
:10A0800003A8012100F014FCB0EE6A0A03A8022123
:10A0900000F00EFCB0EE4A0A03A8032100F008FC11
:10A0A000424603A80D2100F0BBFB29EE8B0A03A852
:10A0B0000E2100F0FDFB29EE0B0A03A8102100F091
:10A0C000F7FBB0EE680A03A8132100F0F1FBB0EE35
:10A0D000480A03A8142100F0EBFB07A8402223A99B
:10A0E00000F098FB3A46012107A800F033FC03A8D2
:10A0F00000F0ECFC019003A800F0E4FC019A034698
:10A10000032107A800F076FC0BA8502233A900F029
:10A1100081FB432201210BA800F082FB07A800F07D
:10A12000D5FC019007A800F0CDFC019A034602215E
:10A130000BA800F05FFC0FA8642247A900F06AFB9F
:10A140000FA84FF0FF32022100F004FC002203218F
:10A150000FA800F065FB0BA800F0B8FC01900BA85D
:10A1600000F0B0FC019A034604210FA800F042FC65
:10A170003246294613A800F04DFB0FA800F0A6FCBC
:10A1800001900FA800F09EFC019A0346012113A83C
:10A1900000F030FC13A800F095FC206003A800F04C
:10A1A00093FC28B1002060B0BDEC088BBDE8F081C5
:10A1B00007A800F089FC0028F4D10BA800F084FC6B
:10A1C0000028EFD10FA800F07FFC0028EAD113A8E7
:10A1D00000F07AFC80F00100C0B2E4E7E4388E3E83
:10A1E00070B50E4684B01D46014614466846324698
:10A1F00000F010FB2A460321684600F011FB684678
:10A2000000F060FC2060684600F05EFC80F0010019
:10A21000C0B204B070BD00BF90F90000704700BF2D
:10A2200001707047406870474160704780687047B0
:10A2300081607047C0687047C1607047007C70479C
:10A2400001747047407C704741747047807C704750
:10A25000817470474069704741617047007E704764
:10A260000176704710B58AB00446FFF797F80028CA
:10A2700072D03C493C4801F00BFB01A8394A3A49ED
:10A28000172301F04FF901A801F096F800285DD0DE
:10A29000364901A818F06AFF94F900100A2201A8B3
:10A2A00019F066F9324901A818F060FF61680A22C6
:10A2B00001A819F0C9F92F4901A818F057FFA168A2
:10A2C0000A2201A819F0C0F92B4901A818F04EFF85
:10A2D000E1680A2201A819F0B7F9284901A818F085
:10A2E00045FF217C0A2201A819F0E0F9244901A8C0
:10A2F00018F03CFF617C0A2201A819F039F92149C4
:10A3000001A818F033FFA17C0A2201A819F030F946
:10A310001D4901A818F02AFF61690A2201A819F055
:10A3200093F91A4901A818F021FF217E0A2201A8F9
:10A3300019F01EF901A800F0CDFF01A801F030F8D6
:10A340001349144818F09EFF0AB010BD1249114875
:10A3500018F098FF0AB010BD10490E4818F092FF8F
:10A360000AB010BDECD60400B06B002038D7040052
:10A370003CD704004CD7040058D7040064D704002D
:10A3800070D7040080D704008CD70400A0D7040045
:10A39000ACD7040060780020F8D60400A8D60400EA
:10A3A0002DE9F04F9FB0FEF7F9FF002800F09780ED
:10A3B0008A498B4801F020F9002870D001A8874A0B
:10A3C0008749012301F0AEF801A800F0F5FF00284D
:10A3D00000F09580834FDFF85082DFF85092DFF86D
:10A3E00050A201A800F024FF00285FD00AAD2E463D
:10A3F0000024272C07D163E000F038FFC0B20A2800
:10A4000008D00D2860D101A800F012FF0346002BF0
:10A4100001A8F1DC1EAB1C44002604F8506C9DF82A
:10A420002830232BDDD0002BDBD03D2128461FF028
:10A43000EEFF04460028D4D0421B5FFA82FB294677
:10A440005A4614A820F02DF81EAB03EB0B02601C3B
:10A4500002F8286C1FF04AF8BDF8502045F6542346
:10A460009A42044634D0149BBB423DD0149B4345D2
:10A470004AD0149B4B454ED0149B534572D05A4B37
:10A48000149A9A4252D0149B4B4576D0574914A83F
:10A490001FF0CAFF00287AD1554B5C61A1E75549EE
:10A4A000554818F0EFFE1FB0BDE8F08F01A800F08E
:10A4B00077FF5249504818F0E5FE1FB0BDE8F08F15
:10A4C00001A800F0B5FEA5E706F8010B013490E7FE
:10A4D0009DF85230002BC6D1454B187081E7484992
:10A4E000454818F0CFFEDEE7464B159A9A42BDD19B
:10A4F000454B169A9A42B9D13D4B5C6071E743498E
:10A500003D4818F0BFFECEE7414B159A9A42B0D1B4
:10A51000374B9C6065E73F4B159A9A42ACD19DF84A
:10A520005830002BA8D1324BDC605AE703F1BE63F0
:10A53000159A03F5433303F502739A42A3D103F14D
:10A540005063169A03F5602303F2F9239A429AD1D5
:10A55000BDF85C30432B96D1201E254B18BF01203F
:10A5600058743EE72C4B159A9A4288D1BDF8583062
:10A57000542B84D11E4B1C7433E7284B159A9A42F6
:10A5800084D1201E1A4B18BF0120987429E7149B10
:10A59000234A934208D02349174818F0E7FD14A92D
:10A5A000154818F0DFFE1CE702F1DF62159B02F58B
:10A5B0009E2202F20C529342EDD1BDF8582044F293
:10A5C00045439A42E7D19DF85A30002BE3D1201E33
:10A5D000074B18BF0120187603E700BFECD6040034
:10A5E000B06B00204C4F47494441544130D90400DE
:10A5F000586B002028D8040060780020B8D80400E8
:10A60000DCD704004E54455256414C0078D8040023
:10A610004155440042415544494E5341555443002D
:10A62000424C454550D90400475053424D4553488C
:10A630004750534D38B547F230524FF416534FF44C
:10A64000164501214260836004220023C5602E4D1F
:10A65000837443610446027002820176FFF7A0FE14
:10A660002A49284618F082FD94F900100A2228464B
:10A6700019F04CF82649284618F078FD61680A223E
:10A68000284618F0C1FF2349284618F06FFDA1683D
:10A690000A22284618F0B8FF1F49284618F066FD20
:10A6A000E1680A22284618F0AFFF1C49284618F036
:10A6B0005DFD217C0A22284618F0BEFF1849284675
:10A6C00018F054FD617C0A22284619F01FF815493C
:10A6D000284618F04BFDA17C0A22284619F016F8EE
:10A6E0001149284618F042FD61690A22284618F0EF
:10A6F0008BFF0E49284618F039FD217E28460A2294
:10A70000BDE8384018F034BF6078002084D90400D8
:10A7100094D90400A8D90400D0D90400E0D90400D9
:10A72000F0D9040004DA040014DA04002CDA04007E
:10A7300008B50121052018F01DFC0121052018F0A5
:10A740009DFC0121062018F015FCBDE80840012100
:10A75000062018F093BC00BF08B5052018F0ACFC2B
:10A7600000B908BD0021052018F088FC04490548FF
:10A7700018F088FDBDE808400348FEF7F5BA00BFB1
:10A780003CDA0400607800205CDA040008B505209B
:10A7900018F092FC01280CD00121052018F06EFC65
:10A7A0000449054818F06EFDBDE808400348FEF76F
:10A7B000DBBA08BD68DA04006078002088DA04009B
:10A7C00008B5062018F078FC00B908BD0021062065
:10A7D00018F054FCBDE808400149024818F052BD89
:10A7E00094DA04006078002008B5062018F064FCB4
:10A7F000012809D00121062018F040FCBDE80840DE
:10A800000249034818F03EBD08BD00BFB8DA040095
:10A81000607800200023C0E9001283600373704752
:10A82000C9007F2970B4D0E9014312D9012608E09C
:10A830000468E554D0E90143C90901337F298360E5
:10A8400007D9A34261F07F05F2D3C9097F290673B6
:10A85000F7D8A34223D20468E154836844680133E3
:10A860007F2A836012D9012608E00168CD54D0E91F
:10A870000143D20901337F2A836007D9A34262F0E2
:10A880007F05F2D3D2097F2A0673F7D8A3420AD2F2
:10A890000168CA548368013370BC8360704701212A
:10A8A0007F2A0173DFD8012370BC0373704700BF98
:10A8B000C90041F005017F2970B4D0E9012310EEF1
:10A8C000104A12D9012608E00268D554D0E90123C4
:10A8D000C90901337F29836007D99A4261F07F0556
:10A8E000F2D8C9097F290673F7D89A422ED902688F
:10A8F000D154D0E901120132914223468260E4B280
:10A9000024D901688C54D0E901120132914282604D
:10A91000C3F307241AD901688C54D0E9011201321B
:10A9200091428260C3F3074410D901688C54D0E986
:10A930000112013291424FEA1363826006D9016825
:10A940008B548368013370BC83607047012370BCF3
:10A9500003737047C90041F005017F2970B4D0E945
:10A96000014312D9012608E00468E554D0E9014307
:10A97000C90901337F29836007D99C4261F07F05B3
:10A98000F2D8C9097F290673F7D89C422DD90468EB
:10A99000E154D0E90113013399428360D4B224D940
:10A9A0000168CC54D0E90113013399428360C2F3AA
:10A9B00007241AD90168CC54D0E901130133994214
:10A9C0008360C2F3074410D90168CC54D0E9011365
:10A9D000013399424FEA1262836006D90168CA5472
:10A9E0008368013370BC83607047012370BC0373BC
:10A9F000704700BFC900F0B441F00205D0E9016121
:10AA00007F2D0C4615D94FF0010C09E001680F5558
:10AA1000D0E90161ED094C1C7F2D8460214608D9E5
:10AA2000B44265F07F07F1D3ED097F2D80F80CC0AB
:10AA3000F6D8B4423CD201680D55816846684C1C7A
:10AA40007F2B846021463AD91D464FF0010C09E066
:10AA500001680F55D0E90161ED094C1C7F2D846020
:10AA6000214608D9B44265F07F07F1D3ED097F2D67
:10AA700080F80CC0F6D8B4421ED201680D5581682A
:10AA80000131816093B1D418012608E0036815787C
:10AA90005D548168013201319442816006D043687F
:10AAA0008B42F3D8013294420673F8D1F0BC704760
:10AAB00001257F2B0573C7D801240473E2E71D46E7
:10AAC000D9E700BF80687047007B70470068704717
:10AAD00030B5084B1D7883B045B107490446684638
:10AAE0000FF024F868460FF0E3F92060284603B021
:10AAF00030BD00BF756B0020786B0020F8B5224C8C
:10AB0000224F234E0546294622480EF09FFF224938
:10AB1000204618F02BFB29780A22204601F5FA611D
:10AB200018F0F4FD3946204618F020FB69780A2217
:10AB3000204618F081FD3946204618F017FBA97809
:10AB40000A22204618F078FD1449204618F00EFB22
:10AB5000E9780A22204618F06FFD3146204618F0A9
:10AB600005FB29790A22204618F066FD3146204669
:10AB700018F0FCFA697920460A2218F097FDBDE822
:10AB8000F8400748FEF7F0B86078002000DB0400CA
:10AB900000DC0400786B0020DCDA040028D204001A
:10ABA00004DB040030B587B0FEF7DEFB19491A4814
:10ABB0000EF02EFF194B0446187018B316480EF00D
:10ABC0003DFF054630B91649164818F05BFB204694
:10ABD00007B030BD1449134818F054FB002105227A
:10ABE0000123CDE9012100930822022340F2EA71FA
:10ABF00004A80FF011F904A8FFF780FF2C462046A7
:10AC000007B030BD0949074818F03CFB204607B0A3
:10AC100030BD00BF306E0020786B0020756B0020C7
:10AC200094DB0400607800204CDB040028DB040087
:10AC30000249034A00230B7013707047A46B002075
:10AC40007C6B00202DE9F041BF4DC04EC04F28461F
:10AC500009F0C0FE002812DD284609F0E1FEC4B26A
:10AC60000A2C0ED00D2CF2D03378262BEFD85A1C9C
:10AC70002846FC54327009F0ADFE0028ECDCBDE83B
:10AC8000F08133780022FA5413B900233370DEE7E1
:10AC9000B04938461FF054FC80460028F5D0AE4934
:10ACA0001FF0C2FB002800F0B180AC4940461FF005
:10ACB000BBFB002838D0AA4940461FF0B5FB04462C
:10ACC0004046002C40F0D7801FF0D1FB3378013094
:10ACD00040443B44984200F294809E491FF030FC6F
:10ACE00003469C4920461C461FF02AFC002C00F01D
:10ACF0008880002800F085801EF0F8FB2378542B14
:10AD0000804640F0C58063785A2B40F0C180A3781C
:10AD1000002B40F0BD8041B29248FFF781FA924982
:10AD2000284618F0AFFAB0E79049284618F01EFA06
:10AD30008C48FFF771FA22460146284618F0E6FCD7
:10AD40008B49284618F012FA8648FFF76BFA22461C
:10AD50000146284618F058FC8649284618F006FA9D
:10AD60008048FFF763FA22460146284618F04CFC5B
:10AD70008149284618F0FAF97A48FFF75BFA22462B
:10AD80000146284618F040FC7C49284618F0EEF9A8
:10AD90007448FFF753FA22460146284618F04CFC47
:10ADA0007749284618F0E2F96E48FFF74BFA224639
:10ADB0000146284618F0AAFC7249284618F0D6F930
:10ADC0006848FFF743FA22460146284618F09EFCE1
:10ADD0006D49284618F0CAF96248FFF73BFA224647
:10ADE0000146284618F010FC6849284618F0BEF9BC
:10ADF0005C48FFF733FA22460146284618F0B8FBB4
:10AE000043E76349284618F03DFA3EE76149284682
:10AE100018F038FA6049284618F034FA5F49284695
:10AE200018F030FA5E49284618F02CFA5D49284699
:10AE300018F028FA5C49284618F024FA5B4928469D
:10AE400018F020FA5A49284618F01CFA59492846A1
:10AE500018F018FA5849284618F014FA57492846A5
:10AE600018F010FA5649284618F00CFA55492846A9
:10AE700018F008FA09E754491FF0D6FA18B939480A
:10AE8000FFF7F0F901E75149284618F0FBF9FCE615
:10AE90004F4920461FF0C8FA00283AD04D492046B5
:10AEA0001FF0C2FA00283DD04B4920461FF0BCFAE3
:10AEB000002840D0494920461FF0B6FA002800F08B
:10AEC000AB80474920461FF0AFFA002800F0988079
:10AED000444920461FF0A8FA002800F0B9804249F2
:10AEE00020461FF0A1FA002800F0A9803F49204623
:10AEF0001FF09AFA002840F09980B8F1000118BFBD
:10AF000001211848FFF7ACF93949284618F0BAF979
:10AF1000BBE641461348FFF787F93649284618F043
:10AF2000B1F9B2E641460F48FFF782F932492846A7
:10AF300018F0A8F9A9E641460A48FFF77DF92F491C
:10AF4000284618F09FF9A0E660780020A46B002046
:10AF50007C6B002028D20400D8DB0400A8DF0400AA
:10AF600038E00400586B002074E00400ACDF0400FB
:10AF7000BCDF0400CCDF0400D8DF0400E4DF040001
:10AF8000F4DF040008E0040014E0040028E00400FA
:10AF90003CE00400E0DB040004DC040034DC0400DA
:10AFA00070DC0400B4DC0400FCDC040040DD0400C0
:10AFB00094DD0400ECDD040040DE040098DE0400B3
:10AFC000FCDE040064DF04003CE3040044E304000E
:10AFD000ECD80400F8D8040000D904000CD904000F
:10AFE00018D9040028D9040030D9040044D9040039
:10AFF000BCE20400B4E0040000E1040048E1040005
:10B00000B8F1000118BF01211748FFF71DF91749D2
:10B01000284618F037F938E65FFA88F11248FFF74A
:10B020000FF91349284618F02DF92EE61149284644
:10B0300018F09CF82146284618F094F925E6414678
:10B040000948FFF709F90C49284618F01BF91CE6D6
:10B05000B8F1000118BF01210348FFF7F9F80749CB
:10B06000284618F00FF910E6586B0020D8E10400CC
:10B0700090E1040014E304006CE2040024E2040004
:10B08000044B1A781AB1824201D000207047187020
:10B0900001207047A56B0020034B1A78824204BF41
:10B0A00000221A70704700BFA56B0020002310B566
:10B0B0000D490370436004460C4818F057F80A2203
:10B0C00001210A4818F054FAFFF76CFD207018B1FE
:10B0D000BDE81040FDF7F0BE0549044818F0D2F86D
:10B0E000BDE81040FDF7E8BE8CE304006078002066
:10B0F000B0E30400FDF716BF2DE9F043047889B0F2
:10B100000F461646002C5ED01D4605A80023059369
:10B11000FFF7DEFC044600284BD00599002D5CD0DB
:10B1200006A80EF083FD324D9DF81A109DF81930D7
:10B130009DF81B209DF81D809DF81C90A5FB010C1F
:10B140004FF0640E4FEA5C1C0EFB1C1CA5FB0301B8
:10B1500049090EFB1131A5FB02035B090EFB13230A
:10B16000A5FB0902A5FB080552096D090EFB129209
:10B170000EFB15859DF818E05FFA8CFCC9B2CDF87E
:10B1800004C000915FFA83F838460EF5FA63D7B22F
:10B19000EDB2184A09211FF0D7F8CDE90075164A1B
:10B1A0004346304607211FF0CFF8204609B0BDE8DE
:10B1B000F083387011493070114818F063F8204658
:10B1C00009B0BDE8F0830C700D480E49147018F0FA
:10B1D00059F8204609B0BDE8F0830B480391FFF70A
:10B1E0001BF803994FF4616303FB001198E700BF5C
:10B1F0001F85EB5140E4040050E4040010E4040017
:10B2000060780020E8E30400586B002008461146EF
:10B210001A46FDF731BE00BF007800B970470846F6
:10B22000FFF756BC006A10B103689B681847704767
:10B23000006A38B1C269006947F6FF73101A984274
:10B2400028BF1846704700BF10B50446006A40B1D9
:10B250000023436092B201F04BFC236A5B6803B9A0
:10B2600010BD01236360002010BD00BF006A78B1EB
:10B2700000B583B001220DF1070101F047F9012863
:10B280000CBF9DF807004FF0FF3003B05DF804FBE2
:10B290004FF0FF30704700BF10B50446006A82B01F
:10B2A00080B101220DF1070101F030F901280DD123
:10B2B000206A9DF807400169013901F0E1F9204653
:10B2C00002B010BD0446204602B010BD4FF0FF345E
:10B2D000F5E700BF006A10B1012101F0C9BB70475A
:10B2E00010B50368104A5B6882B093428DF807106E
:10B2F00013D10446006A58B10023436001220DF1C6
:10B30000070101F0F5FB236A5B680BB902B010BDC1
:10B3100001230020636002B010BD01220DF107017E
:10B32000984702B010BD00BF49B20200F8B506460A
:10B33000144B33604FF47A700024C6E90140282092
:10B340000D46174614F0E0FD3062C8B1044605F121
:10B35000200E28686968AA68EB68A446ACE80F006C
:10B36000103575456446F4D128686968634603C39F
:10B370000C22394606F110001FF093F800233377B2
:10B380003046F8BD68E4040004494FF47A728260E4
:10B390000022C0E9001202620274704768E40400EF
:10B3A00010B50446006A30B100F0FEFF206A14F0C8
:10B3B000C5FD0023236210BD006A18B1407A003831
:10B3C00018BF0120704700BF30B590F8413083B0FE
:10B3D00004460D463BB90121204600F0AFFD68B997
:10B3E000002003B030BD3830019200F0DDFF019A3B
:10B3F0000121204600F0A2FD0028F1D02946204678
:10B4000000F07EFE0028EBD004F110052846012252
:10B41000214602F01DF840B1294604F1380001F040
:10B420004DF8003818BF0120DBE7024621462846C8
:10B4300002F00EF80028D3D0EEE700BF2DE9F04F60
:10B440009BB00024DFF8D8B007941031814606A8DD
:10B45000924601938DF8214011948DF84940CDF822
:10B4600018B0CDF840B001F029F806AEA046554618
:10B4700010AF2F2128461EF0CAFF03465C1B294649
:10B4800002A8E4B20BB32B782F2B1CD00C2C28BFB6
:10B490000C2422461FF005F81AAB2344384603F863
:10B4A000608C00F081FF012302AA3146384601F08A
:10B4B0007FFA034630465BB300F076FF33462544FF
:10B4C0003E461F46D5E70135D3E7019B72683189B7
:10B4D000307EF468A5EB0A051D60D6E90435C9F88D
:10B4E0000420A9F80810F269316AC9F81030736AAB
:10B4F00089F818004846C9E90721C9F800B0C9F819
:10B500001450C9F80C40C9F824301BB0BDE8F08FC6
:10B510004846C9E900B389F809301BB0BDE8F08F8F
:10B52000A0E40400F0B5A1B005461E4602A801AB98
:10B530001446FFF783FF019AA15C1444002931D01F
:10B540009DF811302A4F0C9700220D928DF839206A
:10B550002BB92846FFF718FF284621B0F0BD0CA8EC
:10B560003346224602A901F023FA0028F1D002A8AE
:10B5700006F0060600F018FF062E33D00D9BBDF82E
:10B5800038101098179322460F9B119CADF860104D
:10B590001A901B9419939DF848101498139C159BAE
:10B5A000169713E0DDE90643039A1149BDF8100030
:10B5B0001792059A1691ADF860001A941B93199290
:10B5C0009DF820100A98099C0B9B0A4A8DF8701070
:10B5D0001E9016A928461D941F93FFF7A7FE284624
:10B5E00021B0F0BD13990CA801F04AF8C6E700BFDE
:10B5F000A0E4040084E404002DE9F04FA3B000238C
:10B60000DFF88882059300F138061D460C46B346E4
:10B610008DF819300F938DF841301F46CDF810800A
:10B62000CDF838800DF1100914F805C0BCF12F0FCA
:10B630002A4600F09780BCF1000F00F0C380531C35
:10B640008DF800C0E15C2F2900F0D680002900F0C1
:10B65000DC80931C8DF80110E15C2F2900F0E9805B
:10B66000002900F0E880D31C8DF80210E15C2F293E
:10B6700000F0E380002900F0E280131D8DF8031034
:10B68000E15C2F2900F0DD80002900F0DC80531DF3
:10B690008DF80410E15C2F2900F0D780002900F01C
:10B6A000D680931D8DF80510E15C2F2900F0D18024
:10B6B000002900F0D080D31D8DF80610E15C2F2901
:10B6C00000F0CB80002900F0CA8002F108038DF859
:10B6D0000710E15C2F2900F0C880002900F0C78026
:10B6E00002F109038DF80810E15C2F2900F0C180F8
:10B6F000002900F0C08002F10A038DF80910E15C16
:10B700002F2900F0BA80002900F0B98002F10B0364
:10B710008DF80A10E15C2F2900F0B380002900F0B9
:10B72000B28002F10C038DF80B1014F803A08DF811
:10B730000C70BAF12F0F1D461ED001236A465946E0
:10B7400018A81997CDF860808DF8697001F030F96C
:10B75000D0B95E4514D0584600F026FE002023B034
:10B76000BDE8F08F6A1C14F802C0BCF12F0F7FF403
:10B7700062AF8DF8007013465D1C14F805A0DCE77D
:10B78000002023B0BDE8F08F18A800F00DFEBAF13C
:10B79000000F28D001236A465946484601F008F9AF
:10B7A0005E45824609D0584600F0FEFDBAF1000F12
:10B7B000E6D05B46CB46994636E70028E0D00DF14F
:10B7C000380BF6E76A460123594618A8CDE9188CCC
:10B7D0008DF800C08DF869C001F0EAF80028B8D0F3
:10B7E00018A800F0E1FD5E453BD0584600F0DCFDB6
:10B7F000012023B0BDE8F08F012222A90A445D1C7C
:10B8000002F8887C14F805A097E7012322AAD01833
:10B81000002400F8884C6A460123594618A8CDF840
:10B82000608019948DF8694001F0C2F8002890D02A
:10B83000D6E70222E1E70223E8E70322DDE703235C
:10B84000E4E70422D9E70423E0E70522D5E705234E
:10B85000DCE70622D1E70623D8E70722CDE7072356
:10B86000D4E7012023B0BDE8F08F0822C5E7082304
:10B87000CCE70922C1E70923C8E70A22BDE70A236A
:10B88000C4E70B22B9E70B23C0E700BFA0E4040024
:10B890002DE9F04700231E460C4698B0A15D8D4A65
:10B8A000049200F138072F290E9205933D468DF83A
:10B8B00019300F938DF8413099460DF1100832463A
:10B8C00000F09780002900F0B980531C8DF800101B
:10B8D000E15C2F2900F0B580002900F0BA80931CAC
:10B8E0008DF80110E15C2F2900F0B680002900F0EE
:10B8F000B580D31C8DF80210E15C2F2900F0B180D7
:10B90000002900F0B080131D8DF80310E15C2F2991
:10B9100000F0AC80002900F0AB80531D8DF80410BE
:10B92000E15C2F2900F0A780002900F0A680931D7C
:10B930008DF80510E15C2F2900F0A280002900F0AD
:10B94000A180D31D8DF80610E15C2F2900F09D80A9
:10B95000002900F09C8002F108038DF80710E15CDB
:10B960002F2900F0A280002900F0A18002F1090334
:10B970008DF80810E15C2F2900F09C80002900F070
:10B980009B8002F10A038DF80910E15C2F2900F079
:10B990009680002900F0958002F10B038DF80A10C3
:10B9A000E15C2F2900F09080002900F08F8002F1E7
:10B9B0000C038DF80B10E25C8DF80C902F2A1E46BC
:10B9C0001FD012B301236A462946404600F0F0FF1B
:10B9D000AF4282462ED0284600F0E6FCBAF1000FB6
:10B9E00024D0A15D2B462F294546324698467FF448
:10B9F00069AF721CA15C2F297FF464AF8DF80090B1
:10BA000013465E1CA25D002ADCD16946284600F080
:10BA1000DBFF044640B1AF4243D0284600F0C4FCEF
:10BA2000012018B0BDE8F087AF4233D1002018B034
:10BA3000BDE8F0870028F9D00EADD2E78DF80010F0
:10BA4000E3E7012218A90A445E1C02F8609CA25D8B
:10BA5000D9E78DF80110D8E70222F3E78DF802103C
:10BA6000D3E70322EEE78DF80310CEE70422E9E7DF
:10BA70008DF80410C9E70522E4E78DF80510C4E746
:10BA80000622DFE78DF80610BFE70722DAE78DF818
:10BA90000710BAE7284600F087FC204618B0BDE83A
:10BAA000F087012018B0BDE8F0870822CAE78DF8BA
:10BAB0000810AAE70922C5E78DF80910A5E70A22B0
:10BAC000C0E78DF80A10A0E70B22BBE78DF80B103A
:10BAD0009BE700BFA0E40400074B084A9A630221D9
:10BAE000002219615A719A719A721A7383F8302080
:10BAF000DA6383F841207047B06B0020A0E40400B3
:10BB00002DE9F041837905460F461646002B45D1B5
:10BB1000394C2378002B5BD02879DFF8E0800021B6
:10BB200017F0ACFA14F0C8F9044605E014F0C4F9B3
:10BB3000031BB3F5967F05D2FF21404605F0ACF814
:10BB4000FF28F3D12D4847F04001804605F0A4F8C6
:10BB5000182426FA04F1C9B2083C404605F09CF8C6
:10BB600014F1080FF5D1BFB1082F14BFFF218721B1
:10BB700022480024064605F08FF802E0B4F5807FE5
:10BB800008D0FF21304605F087F8030604F10104D0
:10BB9000E872F3D4BDE8F0819521E9E7038940F22A
:10BBA00001245A1CA34202810AD8DFF85080FF21E9
:10BBB000404605F071F82B895A1CA3422A81F6D918
:10BBC0000D4C2879012117F059FA23784BB9AB7144
:10BBD0000B4B0A4893E806000123237004F0B0FFE2
:10BBE0009AE74FF00008054884F8008005F00AF84D
:10BBF000237885F806808DE7146C0020A86F00205C
:10BC0000186C0020F8B583790446154613B1036813
:10BC100099423FD0237B2160032B18BF49020A467B
:10BC200020461121FFF76CFF48B103233D4D63719E
:10BC30002079012117F022FA287820BBF8BD14F0F2
:10BC40003BF9394F064605E014F036F9831BB3F58E
:10BC5000967F5ED8FF21384605F01EF8FF28E07277
:10BC6000F2D0FE2831D00D2363712E4D20790121B1
:10BC700017F004FA2B78002BDAD000232A482B7017
:10BC800004F0C0FFD4E7002427482C7004F0BAFF6A
:10BC90002046F8BD0389002BBCD1234F6E1E05F250
:10BCA000FF15FF21384604F0F7FF06F8010FB542F3
:10BCB000F7D12289A17A02F500739BB2238149B1A1
:10BCC000B3F5007F06D20120F8BD002201232281B6
:10BCD000A371E2E7A1790029F5D040F2012502F233
:10BCE0000122AB42228109D80F4EFF21304604F0D9
:10BCF000D3FF23895A1CAB422281F6D92079012136
:10BD000017F0BCF9074B1A7832B90023A371012050
:10BD1000F8BD0F236371A8E7002203481A7004F0EE
:10BD200071FFF2E7146C0020A86F0020002B00F0D8
:10BD30009B802DE9F0411D461344B3F5007F044676
:10BD4000164612DC837913B10368994217D0237B1E
:10BD50002160032B18BF49020A4620461121FFF734
:10BD6000CFFE002853D003236371474D2079012172
:10BD700017F084F9287800286ED1BDE8F081038996
:10BD80009A42E4D39E420AD9404FFF21384604F03C
:10BD900083FF2189013189B28E422181F5D8069B2A
:10BDA000DFF8E8806F1E13FA87F75E1EFF2140461A
:10BDB00004F072FF06F8010FB742F7D12289A37A87
:10BDC0001544ADB2258113B1B5F5007F1CD3A3791D
:10BDD000D3B140F201236A1C9D4222810AD82B4E26
:10BDE0001D46FF21304604F057FF23895A1CAB4201
:10BDF0002281F6D92079012117F040F9224B1A78D7
:10BE0000002A3BD10023A3710120BDE8F08114F08A
:10BE100053F8DFF87880074605E014F04DF8C01BB2
:10BE2000B0F5967F27D8FF21404604F035FFFF2864
:10BE3000E072F2D0FE2819D00D236371124D2079E3
:10BE4000012117F01BF92B78002B8FD000230F480E
:10BE50002B7004F0D7FE89E700240C482C7004F006
:10BE6000D1FE2046BDE8F081012070470023012269
:10BE70002381A27186E70F236371DFE70022034865
:10BE80001A7004F0BFFEBDE7146C0020A86F0020FC
:10BE9000062906D8052938D8DFE801F00F171F2733
:10BEA0002F0716234371002070471C4B1C4A1A6051
:10BEB0004FF480729A8001207047184B194A1A601B
:10BEC0004FF480729A8001207047144B164A1A6012
:10BED0004FF4807208469A807047104B134A1A60DC
:10BEE0004FF480729A80012070470C4B104A1A6000
:10BEF0004FF480729A8001207047084B0D4A1A60F7
:10BF00004FF480729A8001207047044B0A4A1A60ED
:10BF10004FF480729A800120704700BF186C002097
:10BF200090D0030040787D0100093D0080841E0010
:10BF300040420F0020A1070048E801002DE9F84326
:10BF400000230271037383728371437105460F46A8
:10BF500013F0B2FFDFF89C81DFF89C9101210646C7
:10BF6000287917F007F80121287917F087F840465B
:10BF700004F0A2FD5E4BC9F800304FF48073A9F8BD
:10BF8000043099E80600404604F0DAFD0A24FF2157
:10BF9000404604F081FE631E13F0FF04F7D1DFF882
:10BFA0005C81544804F02EFE98F80030002B60D0DD
:10BFB0002879002117F062F805E013F07DFF801B5F
:10BFC000B0F5FA6F52D8002211462846FFF798FDC7
:10BFD00001280446E872F0D14FF4D57208212846B2
:10BFE000FFF78EFD430726D52C73002405E013F0E0
:10BFF00063FF801BB0F5FA6F51D800223721284625
:10C00000FFF77EFD224629212846FFF779FDE872D9
:10C010000028ECD12B7B022B43D02879012117F08B
:10C020002DF898F80030002B44D139462846BDE859
:10C03000F843FFF72DBFDFF8BC900424FF214846EA
:10C0400004F02AFE631E13F0FF04E872F6D1AA285A
:10C050004FF002031FD06B712879012117F00EF801
:10C0600098F8003073B90020BDE8F88301236B71A4
:10C07000F2E7012399E806001E4888F8003004F032
:10C080005FFD95E700231B4888F8003004F0BAFDF7
:10C090000020BDE8F8832B734FF08044ADE7082300
:10C0A000D9E702463A212846FFF72AFD48B1062380
:10C0B0006B71D1E700230F4888F8003004F0A2FD2F
:10C0C000B3E7FF210B4804F0E7FD00F0C000C028F3
:10C0D00004BF03232B73FF21064804F0DDFDFF217D
:10C0E000044804F0D9FDFF21024804F0D5FD94E78F
:10C0F00090D00300A86F0020186C0020146C002062
:10C10000034B4FF4807219609A800120704700BF82
:10C11000186C00202DE9F0410446002953D01F4639
:10C12000037B032B16460A4618BF4A021821FFF765
:10C13000E7FC58B104233F4D63712079012116F0CB
:10C140009DFF2878002842D1BDE8F0813A48FE21C1
:10C15000804604F0A1FD751E06F2FF1615F8011FBA
:10C16000404604F099FDAE42F8D1FF21324804F078
:10C1700093FDFF21304804F08FFD2F48FF2104F08C
:10C180008BFD00F01F03052BE07237D16FB313F066
:10C1900093FE294F064605E013F08EFE801BB0F596
:10C1A000167F3BD2FF21384604F076FDFF28054676
:10C1B000F2D100220D212046FFF7A2FC78B1142312
:10C1C0001C4D6371B9E712231A4D4371B5E7002482
:10C1D00019482C7004F016FD2046BDE8F081164881
:10C1E000294604F059FD0028E9D12079012116F0F3
:10C1F00045FF104B1A78AAB90120A5E711230D4D70
:10C2000063712079012116F039FF2B78002B94D02F
:10C21000002309482B7004F0F5FC8EE71523054D2B
:10C2200063718AE7044800221A7004F0EBFC0120D5
:10C230008AE700BF146C0020A86F002038B5164DA7
:10C240002B780446A3B12079002116F017FFFF21B7
:10C25000124804F021FD0121034620791C4616F006
:10C260000DFF2B786BB9B4F1FF0018BF012038BD6A
:10C270000B4B0A4893E8060001232B7004F060FC86
:10C28000E1E7002305482B7004F0BCFCB4F1FF008B
:10C2900018BF012038BD00BF146C0020A86F00201B
:10C2A000186C0020034B044A1A604FF480729A8085
:10C2B000704700BF186C002000093D0070B590F970
:10C2C0000820037A002A04460D4608DB15B923F03E
:10C2D000100323722846BDE8704000F0DDBD4069C0
:10C2E000012100F01FFEF0B1637A227E0E4E012B79
:10C2F00006EB421698BFE3690C4A98BFF361236AC4
:10C30000126873831B0CB38232B106F1160106F179
:10C3100018009047338B7382237A03F07F032372D4
:10C32000002DD7D1D3E770BD286C0020206C0020F1
:10C3300070B500F10C0206460121406A00F03AFE99
:10C34000F0B1336AF3B1F268337A716A43F02003D3
:10C350003372087C4B690D79023A02FA00F42344E7
:10C36000C5B16C1EE2B2023DAD1A1D441C4401E091
:10C37000A5420DD02046013C00F0C2FE0028F7D1B6
:10C38000002070BD337AF268326243F08003DCE74C
:10C39000736A187CF3694FF4007202FA00F00344E8
:10C3A000F361012070BD00BF38B5437A63B190F9E5
:10C3B0000830002B044609DB012000F06DFD18B1A8
:10C3C00000236372012038BD002038BD406901217F
:10C3D00000F0A8FD0028F7D0637A227E0F4D012BD4
:10C3E00005EB421598BFE3690D4A98BFEB61236ADC
:10C3F00012686B831B0CAB8232B105F1160105F19B
:10C40000180090472B8B6B82237A03F07F032372F3
:10C41000012000F041FD0028D2D1D5E7286C002092
:10C42000206C00202DE9F0414FF0203305464B6091
:10C430000B60C1F8073015F8014B84B08C4694B1FD
:10C440001D4F4FF0000E4FF007086E462E2C10D1F6
:10C45000B8F10A0F2CD04FF0080E4FF00A0815F86B
:10C46000014B002CF2D19CF80000203818BF0120AD
:10C470001FE097E80F0086E80F00324601E0A34274
:10C4800016D012F8013B002BF9D1C64510D8A4F103
:10C4900021035D2B0CD8A4F16103192B9CBF203C18
:10C4A000E4B20EF101030CF80E405FFA83FED6E70A
:10C4B000002004B0BDE8F08188E4040038B5437A78
:10C4C0003BB991F82020102A04460D4603D0202ABB
:10C4D00010D0002038BD022242724A8C0362520101
:10C4E000C2610023012020722376C4E90333656210
:10C4F000636138BD03234372496A016200F11C0283
:10C50000284600F035FE0028EBD1E2E72DE9F04F98
:10C51000064685B0407A0392002800F0A080337A66
:10C52000DC0740F19C80F3690F46114632699B1A83
:10C53000994284BF9BB20393039D002D00F0948029
:10C54000DFF83081DFF83091DFF830A138E0706A31
:10C550000479013C04EA5224E4B2BBF1000F40D15B
:10C56000002C3ED1002A34D1316AF16090F810C01D
:10C570004069023901FA0CF104442144CBF50074FE
:10C58000327AA542CCBFA4B22C46530602D4B4F5ED
:10C59000007F28D1D9F800208A4224D0DAF80000A0
:10C5A00000975A462346FFF7C1FB002857D0316950
:10C5B0002D1B6218ADB227443261002D54D0707A21
:10C5C0000228C2F3080BC2D1716A496A01EB5221F9
:10C5D000D4E7F16806F10C0200F04CFE00283ED0D2
:10C5E000706AF168C2E70846002100F09BFCB0B316
:10C5F0000BF104010BEB080341443A1D934238BF91
:10C600008F4203EB040E22D3621E072A1FD924F0A7
:10C61000030CBC443A46194651F8040B42F8040B8B
:10C620006245F9D124F00302944207EB020003EBC8
:10C630000201BCD09B5CBB544B1C9E45B7D04B78D1
:10C6400043708B1C9E45B2D08B788370AFE77A1E07
:10C6500013F8011B02F8011F9E45F9D1A7E74FF01F
:10C66000FF3005B0BDE8F08FBDF90C0005B0BDE8A6
:10C67000F08F00BF286C00200C6000202C6E002082
:10C68000F8B5437A1BB3C2698A4204460F461ED3EB
:10C69000022B19D009B3436A01691D7C4A1E05F1BA
:10C6A00009037D1EDA40DD40AA4212D9236AE36005
:10C6B00004F10C0605E0E168606A00F0DBFD013D75
:10C6C00028B13246002DF6D127610120F8BD0020A7
:10C6D000F8BD0029EAD0AD1AEAE7E1602761012040
:10C6E000F4E700BF38B5437A012B29D1037A9A07C2
:10C6F000044625D55B0703D5C16903698B4221D167
:10C70000154B1868FFF79AFD0146C8B9237A13F054
:10C7100020050CD1114A1268CAB9206943F01003F0
:10C72000C0F30800C0F50070237280B238BD627A91
:10C730001AB12046FFF7C2FD237A23F020032372AB
:10C74000002038BDFFF79CFF0028D9D1F8E700F0A2
:10C75000D1FB284638BD00BF2C6E0020286E00207B
:10C76000F8B52D4B03EB41130446DE7A16F0110F9A
:10C77000154602D012F0420F1BD12176988A598BB0
:10C78000264A41EA0041126821626261DA7A12F0B7
:10C7900018070CD1DA69E261012605F00F0368067B
:10C7A000C4E903776672237218D43046F8BD102F9F
:10C7B00001D00020F8BD606A04F11C0200F0D8FC32
:10C7C0000028F6D005F00F020421002322726A0629
:10C7D000C4E903336172ECD40120F8BDAB07E8D59E
:10C7E000002AE2D0606A00F0AFFD0028E1D0237A91
:10C7F000627A276263F07F03E7612372002AD8D050
:10C8000031462046FFF75AFD0028D2D0394620464F
:10C81000BDE8F840FFF734BF286C00200C60002012
:10C820002DE9F04F85B00DF1040807460C4610467F
:10C8300041469A46FFF7F6FD002878D0E369626A20
:10C840007A620026C4E90366002B6CD0DFF850B191
:10C85000DFF8589132460AE0E5296CD05BF8031006
:10C86000D8F800308B4269D0E369934225D9637AC6
:10C87000012BC2F343155AD901220DF103012046C1
:10C88000FFF744FE012852D122696B011F32226159
:10C890001BF803100BEB45100029DDD1002E68D1E9
:10C8A000D9F800103D7679611BF80330002B60D079
:10C8B000E36993424FF00106D9D80AF01203122B14
:10C8C00035D1002E59D1637A022B30D02046FFF7A4
:10C8D0002FFD60B30023324C3B7698E80700314DC2
:10C8E00023462E680025C4E90255C4E90455C4E96D
:10C8F000065503C3130C2281A372002E47D004F106
:10C900000E0104F11000B047238AE28963820120FE
:10C910002383E28200F0C0FA48B1397E524638469D
:10C92000FFF71EFF04E00AF01203122BCBD0002009
:10C9300005B0BDE8F08F002EBAD1B1E74168029B87
:10C940008B4200F104008FD1BDF80C1030F8043F89
:10C95000994289D183789DF80E10994284D10AF0CA
:10C960003003302BE3D0524629463846FFF7F8FE15
:10C97000DEE70AF01203122BD9D17869012100F009
:10C98000D1FA0028D3D03C7E0BEB4414A5E7064B2C
:10C99000C4F80E304FF4006242F62103B6E700BF40
:10C9A000286C0020206C0020000821280C6000204A
:10C9B00010B4447A1CB100205DF8044B70475DF858
:10C9C000044BFFF72DBF00BF30B58BB00024264DC0
:10C9D00001940A460223014668468DF809400095F5
:10C9E000FFF71EFF10B900200BB030BD9DF80950B5
:10C9F000012DF8D19DF808309B07F4D5079BFBB1BA
:10CA0000DDE90810CDE9034400F09EFC0028EAD0DF
:10CA10009DF808309DF80920089463F07F0307947F
:10CA20008DF80830002ADED029466846FFF746FC1C
:10CA30000028D8D021466846FFF722FE0028D2D031
:10CA40000598012100F06EFA0028CCD09DF818302E
:10CA500006495B01E52400225C5401208DF8092081
:10CA600000F01AFA0BB030BDA0E40400286C0020DE
:10CA7000437A002B36D070B590F90820037A002A4B
:10CA800004460D4608DB15B923F01003237228462F
:10CA9000BDE8704000F000BA4069012100F042FAA0
:10CAA000F0B1637A227E104E012B06EB421698BF3E
:10CAB000E3690E4A98BFF361236A126873831B0C03
:10CAC000B38232B106F1160106F118009047338B9C
:10CAD0007382237A03F07F032372002DD7D1D3E72B
